{
  "address": "0xE77eDd217c589AbA9887eDF802e8eBe0a57a0578",
  "abi": [
    {
      "inputs": [
        {
          "internalType": "contract ICoreBorrow",
          "name": "_coreBorrow",
          "type": "address"
        }
      ],
      "stateMutability": "nonpayable",
      "type": "constructor"
    },
    {
      "inputs": [],
      "name": "InvalidCall",
      "type": "error"
    },
    {
      "inputs": [],
      "name": "InvalidParam",
      "type": "error"
    },
    {
      "inputs": [],
      "name": "NotGovernorOrGuardian",
      "type": "error"
    },
    {
      "inputs": [],
      "name": "ZeroAddress",
      "type": "error"
    },
    {
      "anonymous": false,
      "inputs": [
        {
          "indexed": false,
          "internalType": "uint64",
          "name": "param",
          "type": "uint64"
        },
        {
          "indexed": false,
          "internalType": "bytes32",
          "name": "what",
          "type": "bytes32"
        }
      ],
      "name": "FiledUint64",
      "type": "event"
    },
    {
      "anonymous": false,
      "inputs": [
        {
          "indexed": true,
          "internalType": "address",
          "name": "asset",
          "type": "address"
        },
        {
          "indexed": false,
          "internalType": "uint64",
          "name": "fees",
          "type": "uint64"
        },
        {
          "indexed": false,
          "internalType": "uint64",
          "name": "vestingPeriod",
          "type": "uint64"
        },
        {
          "indexed": true,
          "internalType": "address",
          "name": "deploymentAddress",
          "type": "address"
        }
      ],
      "name": "NewHDCContract",
      "type": "event"
    },
    {
      "inputs": [],
      "name": "coreBorrow",
      "outputs": [
        {
          "internalType": "contract ICoreBorrow",
          "name": "",
          "type": "address"
        }
      ],
      "stateMutability": "view",
      "type": "function"
    },
    {
      "inputs": [
        {
          "internalType": "address",
          "name": "asset",
          "type": "address"
        },
        {
          "internalType": "uint64",
          "name": "fees",
          "type": "uint64"
        },
        {
          "internalType": "uint64",
          "name": "vestingPeriod",
          "type": "uint64"
        }
      ],
      "name": "deployHDC",
      "outputs": [
        {
          "internalType": "address",
          "name": "deployed",
          "type": "address"
        }
      ],
      "stateMutability": "nonpayable",
      "type": "function"
    },
    {
      "inputs": [],
      "name": "getAllHDCContracts",
      "outputs": [
        {
          "internalType": "address[]",
          "name": "",
          "type": "address[]"
        }
      ],
      "stateMutability": "view",
      "type": "function"
    },
    {
      "inputs": [
        {
          "internalType": "address",
          "name": "asset",
          "type": "address"
        },
        {
          "internalType": "uint64",
          "name": "fees",
          "type": "uint64"
        }
      ],
      "name": "getHDCAddress",
      "outputs": [
        {
          "internalType": "address",
          "name": "",
          "type": "address"
        }
      ],
      "stateMutability": "view",
      "type": "function"
    },
    {
      "inputs": [
        {
          "internalType": "uint256",
          "name": "",
          "type": "uint256"
        }
      ],
      "name": "hdcContractList",
      "outputs": [
        {
          "internalType": "address",
          "name": "",
          "type": "address"
        }
      ],
      "stateMutability": "view",
      "type": "function"
    },
    {
      "inputs": [
        {
          "internalType": "address",
          "name": "",
          "type": "address"
        },
        {
          "internalType": "uint64",
          "name": "",
          "type": "uint64"
        }
      ],
      "name": "hdcFactory",
      "outputs": [
        {
          "internalType": "address",
          "name": "",
          "type": "address"
        }
      ],
      "stateMutability": "view",
      "type": "function"
    },
    {
      "inputs": [
        {
          "internalType": "uint64",
          "name": "",
          "type": "uint64"
        }
      ],
      "name": "supportedFees",
      "outputs": [
        {
          "internalType": "bool",
          "name": "",
          "type": "bool"
        }
      ],
      "stateMutability": "view",
      "type": "function"
    },
    {
      "inputs": [
        {
          "internalType": "uint64",
          "name": "",
          "type": "uint64"
        }
      ],
      "name": "supportedVestingPeriods",
      "outputs": [
        {
          "internalType": "bool",
          "name": "",
          "type": "bool"
        }
      ],
      "stateMutability": "view",
      "type": "function"
    },
    {
      "inputs": [
        {
          "internalType": "uint64",
          "name": "param",
          "type": "uint64"
        },
        {
          "internalType": "bytes32",
          "name": "what",
          "type": "bytes32"
        }
      ],
      "name": "toggleUint64",
      "outputs": [],
      "stateMutability": "nonpayable",
      "type": "function"
    }
  ],
  "transactionHash": "0x2392c51407e31571b1cd3ef1a05ccea910463d06bfb6c0f951d73fb9f8486bf4",
  "args": [
    "0x78754109cb73772d70A6560297037657C2AF51b8"
  ],
  "numDeployments": 2,
  "solcInputHash": "cab971c0f8374c68a2ad7bb26b8f6428",
  "bytecode": "0x608060405234801561001057600080fd5b50604051612fd2380380612fd283398101604081905261002f916100e1565b6001600160a01b0381166100565760405163d92e233d60e01b815260040160405180910390fd5b600080546001600160a01b0319166001600160a01b03929092169190911781557fd269868a1917d972243cf7d1ad5974038cb7f908f488a91a39256a112f1e479f805460ff1990811660019081179092556298968090925260026020527fd06adf0cc4b0d64f4fdd2c7cb9085f20e7ba8f62a877ca7e318f4d430dcb1d658054909216179055610111565b6000602082840312156100f357600080fd5b81516001600160a01b038116811461010a57600080fd5b9392505050565b612eb2806101206000396000f3fe60806040523480156200001157600080fd5b5060043610620000b05760003560e01c8063a7efec71116200007f578063d473f9871162000062578063d473f98714620001a6578063e056975714620001f8578063e059544c146200020f57600080fd5b8063a7efec711462000169578063cef65f5e146200018057600080fd5b80631b0c24d514620000b55780634552e43e146200010057806387f073dd1462000119578063a39e9af61462000150575b600080fd5b600054620000d69073ffffffffffffffffffffffffffffffffffffffff1681565b60405173ffffffffffffffffffffffffffffffffffffffff90911681526020015b60405180910390f35b620001176200011136600462000805565b62000253565b005b6200013f6200012a36600462000832565b60026020526000908152604090205460ff1681565b6040519015158152602001620000f7565b6200015a6200051e565b604051620000f7919062000857565b620000d66200017a366004620008b3565b6200058f565b6200013f6200019136600462000832565b60036020526000908152604090205460ff1681565b620000d6620001b7366004620008f2565b73ffffffffffffffffffffffffffffffffffffffff918216600090815260016020908152604080832067ffffffffffffffff94909416835292905220541690565b620000d6620002093660046200092a565b620005c7565b620000d662000220366004620008f2565b600160209081526000928352604080842090915290825290205473ffffffffffffffffffffffffffffffffffffffff1681565b6000546040517f521d4de900000000000000000000000000000000000000000000000000000000815233600482015273ffffffffffffffffffffffffffffffffffffffff9091169063521d4de990602401602060405180830381865afa158015620002c2573d6000803e3d6000fd5b505050506040513d601f19601f82011682018060405250810190620002e8919062000974565b6200031f576040517f99e120bc00000000000000000000000000000000000000000000000000000000815260040160405180910390fd5b6000817f46000000000000000000000000000000000000000000000000000000000000001415620003e657633b9aca008367ffffffffffffffff16111562000393576040517fd252903400000000000000000000000000000000000000000000000000000000815260040160405180910390fd5b5067ffffffffffffffff8216600090815260026020526040902080547fffffffffffffffffffffffffffffffffffffffffffffffffffffffffffffff00811660ff909116801591909117909155620004d6565b817f56000000000000000000000000000000000000000000000000000000000000001415620004a45767ffffffffffffffff831662000451576040517fd252903400000000000000000000000000000000000000000000000000000000815260040160405180910390fd5b5067ffffffffffffffff8216600090815260036020526040902080547fffffffffffffffffffffffffffffffffffffffffffffffffffffffffffffff00811660ff909116801591909117909155620004d6565b6040517fd252903400000000000000000000000000000000000000000000000000000000815260040160405180910390fd5b6040805167ffffffffffffffff85168152602081018490527f13b367dac93b85d1ed9b3d8961d8b48e1a677c9800bb1613b4b0416b2d5b61d0910160405180910390a1505050565b606060048054806020026020016040519081016040528092919081815260200182805480156200058557602002820191906000526020600020905b815473ffffffffffffffffffffffffffffffffffffffff16815260019091019060200180831162000559575b5050505050905090565b60048181548110620005a057600080fd5b60009182526020909120015473ffffffffffffffffffffffffffffffffffffffff16905081565b73ffffffffffffffffffffffffffffffffffffffff838116600090815260016020908152604080832067ffffffffffffffff871684529091528120549091161515806200062e575067ffffffffffffffff831660009081526002602052604090205460ff16155b8062000654575067ffffffffffffffff821660009081526003602052604090205460ff16155b156200068c576040517fae962d4e00000000000000000000000000000000000000000000000000000000815260040160405180910390fd5b8383836040516200069d90620007d9565b73ffffffffffffffffffffffffffffffffffffffff909316835267ffffffffffffffff9182166020840152166040820152606001604051809103906000f080158015620006ee573d6000803e3d6000fd5b5073ffffffffffffffffffffffffffffffffffffffff858116600081815260016020818152604080842067ffffffffffffffff8b81168087529184528286208054988a167fffffffffffffffffffffffff0000000000000000000000000000000000000000998a1681179091556004805496870181559096527f8a35acfbc15ff81a39ae7d344fd709f28e8600b4aa8c65c6b64bfe7fe36bd19b909401805490971685179096558051958652918816908501529394509290917ff10b98330449aa15687f8e6076a50279b08f168fa376f23bc6dfe35356f94264910160405180910390a39392505050565b6124e4806200099983390190565b803567ffffffffffffffff811681146200080057600080fd5b919050565b600080604083850312156200081957600080fd5b6200082483620007e7565b946020939093013593505050565b6000602082840312156200084557600080fd5b6200085082620007e7565b9392505050565b6020808252825182820181905260009190848201906040850190845b81811015620008a757835173ffffffffffffffffffffffffffffffffffffffff168352928401929184019160010162000873565b50909695505050505050565b600060208284031215620008c657600080fd5b5035919050565b803573ffffffffffffffffffffffffffffffffffffffff811681146200080057600080fd5b600080604083850312156200090657600080fd5b6200091183620008cd565b91506200092160208401620007e7565b90509250929050565b6000806000606084860312156200094057600080fd5b6200094b84620008cd565b92506200095b60208501620007e7565b91506200096b60408501620007e7565b90509250925092565b6000602082840312156200098757600080fd5b815180151581146200085057600080fdfe60a06040523480156200001157600080fd5b50604051620024e4380380620024e4833981016040819052620000349162000282565b82836001600160a01b03166306fdde036040518163ffffffff1660e01b8152600401600060405180830381865afa15801562000074573d6000803e3d6000fd5b505050506040513d6000823e601f3d908101601f191682016040526200009e919081019062000322565b604051602001620000b09190620003da565b604051602081830303815290604052846001600160a01b03166395d89b416040518163ffffffff1660e01b8152600401600060405180830381865afa158015620000fe573d6000803e3d6000fd5b505050506040513d6000823e601f3d908101601f1916820160405262000128919081019062000322565b6040516020016200013a91906200041d565b60408051601f1981840301815291905281516200015f906003906020850190620001bf565b50805162000175906004906020840190620001bf565b5050506001600160a01b0316608052600580546001600160401b0392831668010000000000000000026001600160801b031990911692909316919091179190911790555062000484565b828054620001cd9062000447565b90600052602060002090601f016020900481019282620001f157600085556200023c565b82601f106200020c57805160ff19168380011785556200023c565b828001600101855582156200023c579182015b828111156200023c5782518255916020019190600101906200021f565b506200024a9291506200024e565b5090565b5b808211156200024a57600081556001016200024f565b80516001600160401b03811681146200027d57600080fd5b919050565b6000806000606084860312156200029857600080fd5b83516001600160a01b0381168114620002b057600080fd5b9250620002c06020850162000265565b9150620002d06040850162000265565b90509250925092565b634e487b7160e01b600052604160045260246000fd5b60005b838110156200030c578181015183820152602001620002f2565b838111156200031c576000848401525b50505050565b6000602082840312156200033557600080fd5b81516001600160401b03808211156200034d57600080fd5b818401915084601f8301126200036257600080fd5b815181811115620003775762000377620002d9565b604051601f8201601f19908116603f01168101908382118183101715620003a257620003a2620002d9565b81604052828152876020848701011115620003bc57600080fd5b620003cf836020830160208801620002ef565b979650505050505050565b60008251620003ee818460208701620002ef565b7f20486f6c646572204469636b20436f6e74657374000000000000000000000000920191825250601401919050565b6000825162000431818460208701620002ef565b632d68646360e01b920191825250600401919050565b600181811c908216806200045c57607f821691505b602082108114156200047e57634e487b7160e01b600052602260045260246000fd5b50919050565b608051612021620004c3600039600081816102b20152818161051c01528181610a04015281816110ad0152818161120801526112f601526120216000f3fe608060405234801561001057600080fd5b50600436106101f05760003560e01c80638c6ea7cd1161010f578063c0463711116100a2578063d905777e11610071578063d905777e146104a3578063dd62ed3e146104b6578063e941fa78146104fc578063ef8b30f71461047d57600080fd5b8063c046371114610422578063c63d75b61461044a578063c6e6f5921461047d578063ce96cb771461049057600080fd5b8063a9059cbb116100de578063a9059cbb146103d6578063b3d7f6b9146103e9578063b460af94146103fc578063ba0876521461040f57600080fd5b80638c6ea7cd1461039f57806394bf804d146103a857806395d89b41146103bb578063a457c2d7146103c357600080fd5b806338d52e0f116101875780634cdad506116101565780634cdad5061461030a5780636e553f651461031d57806370a08231146103305780637313ee5a1461036657600080fd5b806338d52e0f1461029857806339509351146102dc578063402d267d146102ef57806344b813961461030257600080fd5b80630a28a477116101c35780630a28a4771461025b57806318160ddd1461026e57806323b872dd14610276578063313ce5671461028957600080fd5b806301e1d114146101f557806306fdde031461021057806307a2d13a14610225578063095ea7b314610238575b600080fd5b6101fd610510565b6040519081526020015b60405180910390f35b6102186105da565b6040516102079190611b8c565b6101fd610233366004611bdd565b61066c565b61024b610246366004611c1f565b61067f565b6040519015158152602001610207565b6101fd610269366004611bdd565b610697565b6002546101fd565b61024b610284366004611c49565b6106ab565b60405160128152602001610207565b60405173ffffffffffffffffffffffffffffffffffffffff7f0000000000000000000000000000000000000000000000000000000000000000168152602001610207565b61024b6102ea366004611c1f565b6106d1565b6101fd6102fd366004611c85565b61071d565b6101fd610759565b6101fd610318366004611bdd565b6107bf565b6101fd61032b366004611ca0565b6107cb565b6101fd61033e366004611c85565b73ffffffffffffffffffffffffffffffffffffffff1660009081526020819052604090205490565b6005546103869068010000000000000000900467ffffffffffffffff1681565b60405167ffffffffffffffff9091168152602001610207565b6101fd60065481565b6101fd6103b6366004611ca0565b6107e5565b6102186107ff565b61024b6103d1366004611c1f565b61080e565b61024b6103e4366004611c1f565b6108ef565b6101fd6103f7366004611bdd565b6108fd565b6101fd61040a366004611ccc565b61090a565b6101fd61041d366004611ccc565b61093b565b60055461038690700100000000000000000000000000000000900467ffffffffffffffff1681565b6101fd610458366004611c85565b507fffffffffffffffffffffffffffffffffffffffffffffffffffffffffffffffff90565b6101fd61048b366004611bdd565b610963565b6101fd61049e366004611c85565b610970565b6101fd6104b1366004611c85565b6109a7565b6101fd6104c4366004611d08565b73ffffffffffffffffffffffffffffffffffffffff918216600090815260016020908152604080832093909416825291909152205490565b6005546103869067ffffffffffffffff1681565b600061051a610759565b7f00000000000000000000000000000000000000000000000000000000000000006040517f70a0823100000000000000000000000000000000000000000000000000000000815230600482015273ffffffffffffffffffffffffffffffffffffffff91909116906370a0823190602401602060405180830381865afa1580156105a7573d6000803e3d6000fd5b505050506040513d601f19601f820116820180604052508101906105cb9190611d32565b6105d59190611d7a565b905090565b6060600380546105e990611d91565b80601f016020809104026020016040519081016040528092919081815260200182805461061590611d91565b80156106625780601f1061063757610100808354040283529160200191610662565b820191906000526020600020905b81548152906001019060200180831161064557829003601f168201915b5050505050905090565b60006106798260006109d2565b92915050565b60003361068d818585610abb565b5060019392505050565b6000806106a383610c6e565b509392505050565b6000336106b9858285610cc1565b6106c4858585610d98565b60019150505b9392505050565b33600081815260016020908152604080832073ffffffffffffffffffffffffffffffffffffffff8716845290915281205490919061068d9082908690610718908790611de5565b610abb565b600061072761104b565b610732576000610679565b7fffffffffffffffffffffffffffffffffffffffffffffffffffffffffffffffff92915050565b60055460009067ffffffffffffffff700100000000000000000000000000000000820481169168010000000000000000900416808201421061079e5760009250505090565b60065481428490038202816107b5576107b5611dfd565b0490039392505050565b6000806106a383611065565b6000806107d784610963565b90506106ca338486846110a8565b6000806107f1846108fd565b90506106ca338483876110a8565b6060600480546105e990611d91565b33600081815260016020908152604080832073ffffffffffffffffffffffffffffffffffffffff87168452909152812054909190838110156108d7576040517f08c379a000000000000000000000000000000000000000000000000000000000815260206004820152602560248201527f45524332303a2064656372656173656420616c6c6f77616e63652062656c6f7760448201527f207a65726f00000000000000000000000000000000000000000000000000000060648201526084015b60405180910390fd5b6108e48286868403610abb565b506001949350505050565b60003361068d818585610d98565b60006106798260016109d2565b600080600061091886610c6e565b9150915061092581611154565b61093233868689866111bb565b50949350505050565b600080600061094986611065565b9150915061095681611154565b610932338686858a6111bb565b60006106798260006112bc565b6000806106a36109a28473ffffffffffffffffffffffffffffffffffffffff1660009081526020819052604090205490565b611065565b73ffffffffffffffffffffffffffffffffffffffff8116600090815260208190526040812054610679565b6000806109de60025490565b905080156109ff576109fa6109f1610510565b85908386611383565b610ab3565b610ab37f000000000000000000000000000000000000000000000000000000000000000073ffffffffffffffffffffffffffffffffffffffff1663313ce5676040518163ffffffff1660e01b8152600401602060405180830381865afa158015610a6d573d6000803e3d6000fd5b505050506040513d601f19601f82011682018060405250810190610a919190611e2c565b610a9c90600a611f6f565b60125b610aaa90600a611f6f565b86919086611383565b949350505050565b73ffffffffffffffffffffffffffffffffffffffff8316610b5d576040517f08c379a0000000000000000000000000000000000000000000000000000000008152602060048201526024808201527f45524332303a20617070726f76652066726f6d20746865207a65726f2061646460448201527f726573730000000000000000000000000000000000000000000000000000000060648201526084016108ce565b73ffffffffffffffffffffffffffffffffffffffff8216610c00576040517f08c379a000000000000000000000000000000000000000000000000000000000815260206004820152602260248201527f45524332303a20617070726f766520746f20746865207a65726f20616464726560448201527f737300000000000000000000000000000000000000000000000000000000000060648201526084016108ce565b73ffffffffffffffffffffffffffffffffffffffff83811660008181526001602090815260408083209487168084529482529182902085905590518481527f8c5be1e5ebec7d5bd14f71427d1e84f3dd0314c0f7b2291e5b200ac8c7c3b925910160405180910390a3505050565b60055460009081908190610ca090633b9aca0090610c969067ffffffffffffffff1682611d7a565b8691906001611383565b9050610cad8160016112bc565b9250610cb98482611d7a565b915050915091565b73ffffffffffffffffffffffffffffffffffffffff8381166000908152600160209081526040808320938616835292905220547fffffffffffffffffffffffffffffffffffffffffffffffffffffffffffffffff8114610d925781811015610d85576040517f08c379a000000000000000000000000000000000000000000000000000000000815260206004820152601d60248201527f45524332303a20696e73756666696369656e7420616c6c6f77616e636500000060448201526064016108ce565b610d928484848403610abb565b50505050565b73ffffffffffffffffffffffffffffffffffffffff8316610e3b576040517f08c379a000000000000000000000000000000000000000000000000000000000815260206004820152602560248201527f45524332303a207472616e736665722066726f6d20746865207a65726f20616460448201527f647265737300000000000000000000000000000000000000000000000000000060648201526084016108ce565b73ffffffffffffffffffffffffffffffffffffffff8216610ede576040517f08c379a000000000000000000000000000000000000000000000000000000000815260206004820152602360248201527f45524332303a207472616e7366657220746f20746865207a65726f206164647260448201527f657373000000000000000000000000000000000000000000000000000000000060648201526084016108ce565b73ffffffffffffffffffffffffffffffffffffffff831660009081526020819052604090205481811015610f94576040517f08c379a000000000000000000000000000000000000000000000000000000000815260206004820152602660248201527f45524332303a207472616e7366657220616d6f756e742065786365656473206260448201527f616c616e6365000000000000000000000000000000000000000000000000000060648201526084016108ce565b73ffffffffffffffffffffffffffffffffffffffff808516600090815260208190526040808220858503905591851681529081208054849290610fd8908490611de5565b925050819055508273ffffffffffffffffffffffffffffffffffffffff168473ffffffffffffffffffffffffffffffffffffffff167fddf252ad1be2c89b69c2b068fc378daa952ba7f163c4a11628f55a4df523b3ef8460405161103e91815260200190565b60405180910390a3610d92565b600080611056610510565b11806105d55750506002541590565b6000806110738360006109d2565b60055490925061109590839067ffffffffffffffff16633b9aca006001611383565b90506110a18183611d7a565b9150915091565b6110d47f00000000000000000000000000000000000000000000000000000000000000008530856113e5565b6110de83826114c1565b8273ffffffffffffffffffffffffffffffffffffffff168473ffffffffffffffffffffffffffffffffffffffff167fdcbc1c05240f31ff3ad067ef1ee35ce4997762752e3a095284754544f4c709d78484604051611146929190918252602082015260400190565b60405180910390a350505050565b80156111b85780611163610759565b61116d9190611de5565b600655600580547fffffffffffffffff0000000000000000ffffffffffffffffffffffffffffffff167001000000000000000000000000000000004267ffffffffffffffff16021790555b50565b8273ffffffffffffffffffffffffffffffffffffffff168573ffffffffffffffffffffffffffffffffffffffff16146111f9576111f9838683610cc1565b61120383826115e1565b61122e7f000000000000000000000000000000000000000000000000000000000000000085846117ce565b8273ffffffffffffffffffffffffffffffffffffffff168473ffffffffffffffffffffffffffffffffffffffff168673ffffffffffffffffffffffffffffffffffffffff167ffbde797d201c681b91056529119e0b02407c7bb96a4a2c75c01fc9667232c8db85856040516112ad929190918252602082015260400190565b60405180910390a45050505050565b6000806112c860025490565b90508315806112d5575080155b6112e5576109fa81610aaa610510565b610ab36112f46012600a611f6f565b7f000000000000000000000000000000000000000000000000000000000000000073ffffffffffffffffffffffffffffffffffffffff1663313ce5676040518163ffffffff1660e01b8152600401602060405180830381865afa15801561135f573d6000803e3d6000fd5b505050506040513d601f19601f82011682018060405250810190610a9f9190611e2c565b600080611391868686611824565b905060018360028111156113a7576113a7611f7e565b1480156113c45750600084806113bf576113bf611dfd565b868809115b156113d7576113d4600182611de5565b90505b95945050505050565b505050565b60405173ffffffffffffffffffffffffffffffffffffffff80851660248301528316604482015260648101829052610d929085907f23b872dd00000000000000000000000000000000000000000000000000000000906084015b604080517fffffffffffffffffffffffffffffffffffffffffffffffffffffffffffffffe08184030181529190526020810180517bffffffffffffffffffffffffffffffffffffffffffffffffffffffff167fffffffff00000000000000000000000000000000000000000000000000000000909316929092179091526118f2565b73ffffffffffffffffffffffffffffffffffffffff821661153e576040517f08c379a000000000000000000000000000000000000000000000000000000000815260206004820152601f60248201527f45524332303a206d696e7420746f20746865207a65726f20616464726573730060448201526064016108ce565b80600260008282546115509190611de5565b909155505073ffffffffffffffffffffffffffffffffffffffff82166000908152602081905260408120805483929061158a908490611de5565b909155505060405181815273ffffffffffffffffffffffffffffffffffffffff8316906000907fddf252ad1be2c89b69c2b068fc378daa952ba7f163c4a11628f55a4df523b3ef9060200160405180910390a35050565b73ffffffffffffffffffffffffffffffffffffffff8216611684576040517f08c379a000000000000000000000000000000000000000000000000000000000815260206004820152602160248201527f45524332303a206275726e2066726f6d20746865207a65726f2061646472657360448201527f730000000000000000000000000000000000000000000000000000000000000060648201526084016108ce565b73ffffffffffffffffffffffffffffffffffffffff82166000908152602081905260409020548181101561173a576040517f08c379a000000000000000000000000000000000000000000000000000000000815260206004820152602260248201527f45524332303a206275726e20616d6f756e7420657863656564732062616c616e60448201527f636500000000000000000000000000000000000000000000000000000000000060648201526084016108ce565b73ffffffffffffffffffffffffffffffffffffffff83166000908152602081905260408120838303905560028054849290611776908490611d7a565b909155505060405182815260009073ffffffffffffffffffffffffffffffffffffffff8516907fddf252ad1be2c89b69c2b068fc378daa952ba7f163c4a11628f55a4df523b3ef9060200160405180910390a3505050565b60405173ffffffffffffffffffffffffffffffffffffffff83166024820152604481018290526113e09084907fa9059cbb000000000000000000000000000000000000000000000000000000009060640161143f565b600080807fffffffffffffffffffffffffffffffffffffffffffffffffffffffffffffffff858709858702925082811083820303915050806000141561187d5783828161187357611873611dfd565b04925050506106ca565b80841161188957600080fd5b60008486880960026001871981018816978890046003810283188082028403028082028403028082028403028082028403028082028403029081029092039091026000889003889004909101858311909403939093029303949094049190911702949350505050565b6000611954826040518060400160405280602081526020017f5361666545524332303a206c6f772d6c6576656c2063616c6c206661696c65648152508573ffffffffffffffffffffffffffffffffffffffff166119fe9092919063ffffffff16565b8051909150156113e057808060200190518101906119729190611fad565b6113e0576040517f08c379a000000000000000000000000000000000000000000000000000000000815260206004820152602a60248201527f5361666545524332303a204552433230206f7065726174696f6e20646964206e60448201527f6f7420737563636565640000000000000000000000000000000000000000000060648201526084016108ce565b6060610ab384846000858573ffffffffffffffffffffffffffffffffffffffff85163b611a87576040517f08c379a000000000000000000000000000000000000000000000000000000000815260206004820152601d60248201527f416464726573733a2063616c6c20746f206e6f6e2d636f6e747261637400000060448201526064016108ce565b6000808673ffffffffffffffffffffffffffffffffffffffff168587604051611ab09190611fcf565b60006040518083038185875af1925050503d8060008114611aed576040519150601f19603f3d011682016040523d82523d6000602084013e611af2565b606091505b5091509150611b02828286611b0d565b979650505050505050565b60608315611b1c5750816106ca565b825115611b2c5782518084602001fd5b816040517f08c379a00000000000000000000000000000000000000000000000000000000081526004016108ce9190611b8c565b60005b83811015611b7b578181015183820152602001611b63565b83811115610d925750506000910152565b6020815260008251806020840152611bab816040850160208701611b60565b601f017fffffffffffffffffffffffffffffffffffffffffffffffffffffffffffffffe0169190910160400192915050565b600060208284031215611bef57600080fd5b5035919050565b803573ffffffffffffffffffffffffffffffffffffffff81168114611c1a57600080fd5b919050565b60008060408385031215611c3257600080fd5b611c3b83611bf6565b946020939093013593505050565b600080600060608486031215611c5e57600080fd5b611c6784611bf6565b9250611c7560208501611bf6565b9150604084013590509250925092565b600060208284031215611c9757600080fd5b6106ca82611bf6565b60008060408385031215611cb357600080fd5b82359150611cc360208401611bf6565b90509250929050565b600080600060608486031215611ce157600080fd5b83359250611cf160208501611bf6565b9150611cff60408501611bf6565b90509250925092565b60008060408385031215611d1b57600080fd5b611d2483611bf6565b9150611cc360208401611bf6565b600060208284031215611d4457600080fd5b5051919050565b7f4e487b7100000000000000000000000000000000000000000000000000000000600052601160045260246000fd5b600082821015611d8c57611d8c611d4b565b500390565b600181811c90821680611da557607f821691505b60208210811415611ddf577f4e487b7100000000000000000000000000000000000000000000000000000000600052602260045260246000fd5b50919050565b60008219821115611df857611df8611d4b565b500190565b7f4e487b7100000000000000000000000000000000000000000000000000000000600052601260045260246000fd5b600060208284031215611e3e57600080fd5b815160ff811681146106ca57600080fd5b600181815b80851115611ea857817fffffffffffffffffffffffffffffffffffffffffffffffffffffffffffffffff04821115611e8e57611e8e611d4b565b80851615611e9b57918102915b93841c9390800290611e54565b509250929050565b600082611ebf57506001610679565b81611ecc57506000610679565b8160018114611ee25760028114611eec57611f08565b6001915050610679565b60ff841115611efd57611efd611d4b565b50506001821b610679565b5060208310610133831016604e8410600b8410161715611f2b575081810a610679565b611f358383611e4f565b807fffffffffffffffffffffffffffffffffffffffffffffffffffffffffffffffff04821115611f6757611f67611d4b565b029392505050565b60006106ca60ff841683611eb0565b7f4e487b7100000000000000000000000000000000000000000000000000000000600052602160045260246000fd5b600060208284031215611fbf57600080fd5b815180151581146106ca57600080fd5b60008251611fe1818460208701611b60565b919091019291505056fea2646970667358221220b177bd7d3b8a81355a8f796a397df571979302027f29d59e65283e16cc49b4b264736f6c634300080c0033a26469706673582212206ea310e750a657b3d84483138fece72ddd6608c606f7e2b92ffb6cc71acd42ee64736f6c634300080c0033",
  "devdoc": {
    "author": "Angle Core Team",
    "kind": "dev",
    "methods": {
      "getAllHDCContracts()": {
        "details": "Helper for UIs"
      }
    },
    "title": "HDCFactory",
    "version": 1
  },
  "userdoc": {
    "kind": "user",
    "methods": {
      "coreBorrow()": {
        "notice": "Address used for Access control"
      },
      "deployHDC(address,uint64,uint64)": {
        "notice": "Deploys a HDC contract for `asset` with withdrawal fees of `fees` and a vesting period of `vestingPeriod`"
      },
      "getAllHDCContracts()": {
        "notice": "Returns all the HDC contracts"
      },
      "getHDCAddress(address,uint64)": {
        "notice": "Get the HDC contract address associated to the pair (`asset`, `fees`)"
      },
      "hdcContractList(uint256)": {
        "notice": "List of all HDC contract addresses"
      },
      "hdcFactory(address,uint64)": {
        "notice": "Maps pairs of (asset address, fee value) to the address of the corresponding holder dick contest"
      },
      "supportedFees(uint64)": {
        "notice": "Maps a fee value to whether it is supported or not"
      },
      "supportedVestingPeriods(uint64)": {
        "notice": "Maps a vesting period to whether it is supported or not"
      },
      "toggleUint64(uint64,bytes32)": {
        "notice": "Toggles support for a fee or a vesting period"
      }
    },
    "version": 1
  },
  "storageLayout": {
    "storage": [
      {
        "astId": 3643,
        "contract": "contracts/HDCFactory.sol:HDCFactory",
        "label": "coreBorrow",
        "offset": 0,
        "slot": "0",
        "type": "t_contract(ICoreBorrow)4336"
      },
      {
        "astId": 3650,
        "contract": "contracts/HDCFactory.sol:HDCFactory",
        "label": "hdcFactory",
        "offset": 0,
        "slot": "1",
        "type": "t_mapping(t_address,t_mapping(t_uint64,t_address))"
      },
      {
        "astId": 3655,
        "contract": "contracts/HDCFactory.sol:HDCFactory",
        "label": "supportedFees",
        "offset": 0,
        "slot": "2",
        "type": "t_mapping(t_uint64,t_bool)"
      },
      {
        "astId": 3660,
        "contract": "contracts/HDCFactory.sol:HDCFactory",
        "label": "supportedVestingPeriods",
        "offset": 0,
        "slot": "3",
        "type": "t_mapping(t_uint64,t_bool)"
      },
      {
        "astId": 3664,
        "contract": "contracts/HDCFactory.sol:HDCFactory",
        "label": "hdcContractList",
        "offset": 0,
        "slot": "4",
        "type": "t_array(t_address)dyn_storage"
      }
    ],
    "types": {
      "t_address": {
        "encoding": "inplace",
        "label": "address",
        "numberOfBytes": "20"
      },
      "t_array(t_address)dyn_storage": {
        "base": "t_address",
        "encoding": "dynamic_array",
        "label": "address[]",
        "numberOfBytes": "32"
      },
      "t_bool": {
        "encoding": "inplace",
        "label": "bool",
        "numberOfBytes": "1"
      },
      "t_contract(ICoreBorrow)4336": {
        "encoding": "inplace",
        "label": "contract ICoreBorrow",
        "numberOfBytes": "20"
      },
      "t_mapping(t_address,t_mapping(t_uint64,t_address))": {
        "encoding": "mapping",
        "key": "t_address",
        "label": "mapping(address => mapping(uint64 => address))",
        "numberOfBytes": "32",
        "value": "t_mapping(t_uint64,t_address)"
      },
      "t_mapping(t_uint64,t_address)": {
        "encoding": "mapping",
        "key": "t_uint64",
        "label": "mapping(uint64 => address)",
        "numberOfBytes": "32",
        "value": "t_address"
      },
      "t_mapping(t_uint64,t_bool)": {
        "encoding": "mapping",
        "key": "t_uint64",
        "label": "mapping(uint64 => bool)",
        "numberOfBytes": "32",
        "value": "t_bool"
      },
      "t_uint64": {
        "encoding": "inplace",
        "label": "uint64",
        "numberOfBytes": "8"
      }
    }
  }
}